:020000020000FC
:100000000FEF0DBF08E00EBF0FEF0AB900E00BB90C
:100010000FEF04B900E005B900E007B90FEF08B928
:1000200020E060E000C005D041D018D044D02BD0F3
:10003000FACF309B03D0319B07D0089543D030993D
:10004000089523952F7008953DD03199089520305B
:1000500011F42FE008952A952F700895329B03D054
:10006000339B07D008952ED03299089563956F7011
:10007000089528D033990895603011F46FE0089501
:100080006A956F700895349B04D00895089590E0A8
:10009000089518D034990895022F060F003110F0FA
:1000A0002C9A0051802F0BD017D00895022F0F707B
:1000B00002950BB90895062F0F7005B908958F703A
:1000C0008BB9089532ED4FEF59E15A95F1F74A9502
:1000D000D9F73A95C1F708953FEF4FEF5FEF5A9583
:0C00E000F1F74A95D9F73A95C1F7089559
:00000001FF
