:020000020000FC
:100000000FEF0DBF08E00EBF0FEF0AB900E00BB90C
:100010000FEF04B900E005B900E007B90FEF08B928
:1000200020E060E000C004D02DD017D030D0FBCF4E
:10003000309B03D0319B07D008952DD0309908957F
:1000400023952F70089527D031990895203011F409
:100050002FE008952A952F700895329B03D0339B8B
:1000600007D0089518D03299089563956F70089558
:1000700012D033990895603011F46FE008956A95B5
:100080006F700895022F0F7002950BB90895062F17
:100090000F7005B9089532ED4FEF59E15A95F1F718
:0A00A0004A95D9F73A95C1F7089583
:00000001FF
